{
  "_format": "hh-sol-artifact-1",
  "contractName": "HackathonAttestation",
  "sourceName": "contracts/HackthonAttestation.sol",
  "abi": [
    {
      "inputs": [
        {
          "internalType": "address",
          "name": "_attestationStationAddress",
          "type": "address"
        },
        {
          "internalType": "address payable",
          "name": "_receiverAddress",
          "type": "address"
        }
      ],
      "stateMutability": "nonpayable",
      "type": "constructor"
    },
    {
      "anonymous": false,
      "inputs": [
        {
          "indexed": false,
          "internalType": "address",
          "name": "",
          "type": "address"
        },
        {
          "indexed": false,
          "internalType": "uint256",
          "name": "",
          "type": "uint256"
        }
      ],
      "name": "Received",
      "type": "event"
    },
    {
      "anonymous": false,
      "inputs": [
        {
          "indexed": true,
          "internalType": "bytes32",
          "name": "role",
          "type": "bytes32"
        },
        {
          "indexed": true,
          "internalType": "bytes32",
          "name": "previousAdminRole",
          "type": "bytes32"
        },
        {
          "indexed": true,
          "internalType": "bytes32",
          "name": "newAdminRole",
          "type": "bytes32"
        }
      ],
      "name": "RoleAdminChanged",
      "type": "event"
    },
    {
      "anonymous": false,
      "inputs": [
        {
          "indexed": true,
          "internalType": "bytes32",
          "name": "role",
          "type": "bytes32"
        },
        {
          "indexed": true,
          "internalType": "address",
          "name": "account",
          "type": "address"
        },
        {
          "indexed": true,
          "internalType": "address",
          "name": "sender",
          "type": "address"
        }
      ],
      "name": "RoleGranted",
      "type": "event"
    },
    {
      "anonymous": false,
      "inputs": [
        {
          "indexed": true,
          "internalType": "bytes32",
          "name": "role",
          "type": "bytes32"
        },
        {
          "indexed": true,
          "internalType": "address",
          "name": "account",
          "type": "address"
        },
        {
          "indexed": true,
          "internalType": "address",
          "name": "sender",
          "type": "address"
        }
      ],
      "name": "RoleRevoked",
      "type": "event"
    },
    {
      "inputs": [],
      "name": "DEFAULT_ADMIN_ROLE",
      "outputs": [
        {
          "internalType": "bytes32",
          "name": "",
          "type": "bytes32"
        }
      ],
      "stateMutability": "view",
      "type": "function"
    },
    {
      "inputs": [],
      "name": "ETH_GLOBAL_ROLE",
      "outputs": [
        {
          "internalType": "bytes32",
          "name": "",
          "type": "bytes32"
        }
      ],
      "stateMutability": "view",
      "type": "function"
    },
    {
      "inputs": [],
      "name": "PROJECT_MANAGER_ROLE",
      "outputs": [
        {
          "internalType": "bytes32",
          "name": "",
          "type": "bytes32"
        }
      ],
      "stateMutability": "view",
      "type": "function"
    },
    {
      "inputs": [
        {
          "components": [
            {
              "internalType": "address",
              "name": "about",
              "type": "address"
            },
            {
              "internalType": "bytes32",
              "name": "key",
              "type": "bytes32"
            },
            {
              "internalType": "bytes",
              "name": "val",
              "type": "bytes"
            }
          ],
          "internalType": "struct HackathonAttestation.AttestationData",
          "name": "_attestation",
          "type": "tuple"
        }
      ],
      "name": "attestEligibleProject",
      "outputs": [],
      "stateMutability": "nonpayable",
      "type": "function"
    },
    {
      "inputs": [],
      "name": "attestationStation",
      "outputs": [
        {
          "internalType": "contract IAttestationStation",
          "name": "",
          "type": "address"
        }
      ],
      "stateMutability": "view",
      "type": "function"
    },
    {
      "inputs": [
        {
          "internalType": "bytes32",
          "name": "_projectId",
          "type": "bytes32"
        }
      ],
      "name": "checkProjectStatus",
      "outputs": [
        {
          "internalType": "enum HackathonAttestation.ProjectStatus",
          "name": "",
          "type": "uint8"
        }
      ],
      "stateMutability": "view",
      "type": "function"
    },
    {
      "inputs": [
        {
          "internalType": "bytes32",
          "name": "_projectId",
          "type": "bytes32"
        }
      ],
      "name": "checkVotingStatus",
      "outputs": [
        {
          "internalType": "enum HackathonAttestation.VotingStatus",
          "name": "",
          "type": "uint8"
        }
      ],
      "stateMutability": "view",
      "type": "function"
    },
    {
      "inputs": [
        {
          "internalType": "bytes32",
          "name": "_projectId",
          "type": "bytes32"
        },
        {
          "internalType": "string",
          "name": "_projectName",
          "type": "string"
        },
        {
          "internalType": "string",
          "name": "_projectURL",
          "type": "string"
        },
        {
          "internalType": "string",
          "name": "_projectTarget",
          "type": "string"
        }
      ],
      "name": "createProject",
      "outputs": [],
      "stateMutability": "nonpayable",
      "type": "function"
    },
    {
      "inputs": [
        {
          "components": [
            {
              "internalType": "address",
              "name": "about",
              "type": "address"
            },
            {
              "internalType": "bytes32",
              "name": "key",
              "type": "bytes32"
            },
            {
              "internalType": "bytes",
              "name": "val",
              "type": "bytes"
            }
          ],
          "internalType": "struct HackathonAttestation.AttestationData",
          "name": "_attestation",
          "type": "tuple"
        }
      ],
      "name": "donateWithAttest",
      "outputs": [],
      "stateMutability": "payable",
      "type": "function"
    },
    {
      "inputs": [
        {
          "internalType": "bytes32",
          "name": "",
          "type": "bytes32"
        }
      ],
      "name": "donationForProject",
      "outputs": [
        {
          "internalType": "uint256",
          "name": "",
          "type": "uint256"
        }
      ],
      "stateMutability": "view",
      "type": "function"
    },
    {
      "inputs": [
        {
          "internalType": "bytes32",
          "name": "",
          "type": "bytes32"
        }
      ],
      "name": "donationReciever",
      "outputs": [
        {
          "internalType": "address",
          "name": "",
          "type": "address"
        }
      ],
      "stateMutability": "view",
      "type": "function"
    },
    {
      "inputs": [
        {
          "internalType": "address",
          "name": "",
          "type": "address"
        },
        {
          "internalType": "bytes32",
          "name": "",
          "type": "bytes32"
        }
      ],
      "name": "donations",
      "outputs": [
        {
          "internalType": "uint256",
          "name": "",
          "type": "uint256"
        }
      ],
      "stateMutability": "view",
      "type": "function"
    },
    {
      "inputs": [
        {
          "internalType": "bytes32",
          "name": "_projectId",
          "type": "bytes32"
        }
      ],
      "name": "getAllDonationAmount",
      "outputs": [
        {
          "internalType": "uint256",
          "name": "",
          "type": "uint256"
        }
      ],
      "stateMutability": "view",
      "type": "function"
    },
    {
      "inputs": [
        {
          "internalType": "bytes32",
          "name": "_projectId",
          "type": "bytes32"
        }
      ],
      "name": "getDonationAmount",
      "outputs": [
        {
          "internalType": "uint256",
          "name": "",
          "type": "uint256"
        }
      ],
      "stateMutability": "view",
      "type": "function"
    },
    {
      "inputs": [
        {
          "internalType": "bytes32",
          "name": "role",
          "type": "bytes32"
        }
      ],
      "name": "getRoleAdmin",
      "outputs": [
        {
          "internalType": "bytes32",
          "name": "",
          "type": "bytes32"
        }
      ],
      "stateMutability": "view",
      "type": "function"
    },
    {
      "inputs": [
        {
          "internalType": "bytes32",
          "name": "role",
          "type": "bytes32"
        },
        {
          "internalType": "address",
          "name": "account",
          "type": "address"
        }
      ],
      "name": "grantRole",
      "outputs": [],
      "stateMutability": "nonpayable",
      "type": "function"
    },
    {
      "inputs": [
        {
          "internalType": "bytes32",
          "name": "role",
          "type": "bytes32"
        },
        {
          "internalType": "address",
          "name": "account",
          "type": "address"
        }
      ],
      "name": "hasRole",
      "outputs": [
        {
          "internalType": "bool",
          "name": "",
          "type": "bool"
        }
      ],
      "stateMutability": "view",
      "type": "function"
    },
    {
      "inputs": [
        {
          "internalType": "bytes32",
          "name": "",
          "type": "bytes32"
        }
      ],
      "name": "projects",
      "outputs": [
        {
          "internalType": "address",
          "name": "owner",
          "type": "address"
        },
        {
          "internalType": "string",
          "name": "projectName",
          "type": "string"
        },
        {
          "internalType": "string",
          "name": "projectURL",
          "type": "string"
        },
        {
          "internalType": "string",
          "name": "projectTarget",
          "type": "string"
        },
        {
          "internalType": "enum HackathonAttestation.ProjectStatus",
          "name": "projectStatus",
          "type": "uint8"
        },
        {
          "internalType": "enum HackathonAttestation.VotingStatus",
          "name": "votingStatus",
          "type": "uint8"
        },
        {
          "internalType": "uint256",
          "name": "lastStatusUpdateTime",
          "type": "uint256"
        }
      ],
      "stateMutability": "view",
      "type": "function"
    },
    {
      "inputs": [],
      "name": "receiver",
      "outputs": [
        {
          "internalType": "address payable",
          "name": "",
          "type": "address"
        }
      ],
      "stateMutability": "view",
      "type": "function"
    },
    {
      "inputs": [
        {
          "internalType": "bytes32",
          "name": "role",
          "type": "bytes32"
        },
        {
          "internalType": "address",
          "name": "account",
          "type": "address"
        }
      ],
      "name": "renounceRole",
      "outputs": [],
      "stateMutability": "nonpayable",
      "type": "function"
    },
    {
      "inputs": [
        {
          "internalType": "bytes32",
          "name": "role",
          "type": "bytes32"
        },
        {
          "internalType": "address",
          "name": "account",
          "type": "address"
        }
      ],
      "name": "revokeRole",
      "outputs": [],
      "stateMutability": "nonpayable",
      "type": "function"
    },
    {
      "inputs": [
        {
          "internalType": "address payable",
          "name": "_receiverAddress",
          "type": "address"
        }
      ],
      "name": "setReceiver",
      "outputs": [],
      "stateMutability": "nonpayable",
      "type": "function"
    },
    {
      "inputs": [
        {
          "internalType": "bytes4",
          "name": "interfaceId",
          "type": "bytes4"
        }
      ],
      "name": "supportsInterface",
      "outputs": [
        {
          "internalType": "bool",
          "name": "",
          "type": "bool"
        }
      ],
      "stateMutability": "view",
      "type": "function"
    },
    {
      "inputs": [
        {
          "internalType": "bytes32",
          "name": "_projectId",
          "type": "bytes32"
        },
        {
          "internalType": "enum HackathonAttestation.ProjectStatus",
          "name": "_projectStatus",
          "type": "uint8"
        }
      ],
      "name": "updateProjectStatus",
      "outputs": [],
      "stateMutability": "nonpayable",
      "type": "function"
    },
    {
      "inputs": [
        {
          "internalType": "bytes32",
          "name": "_projectId",
          "type": "bytes32"
        },
        {
          "internalType": "enum HackathonAttestation.VotingStatus",
          "name": "_votingStatus",
          "type": "uint8"
        }
      ],
      "name": "updateVotingStatus",
      "outputs": [],
      "stateMutability": "nonpayable",
      "type": "function"
    },
    {
      "inputs": [
        {
          "internalType": "bytes32",
          "name": "_projectId",
          "type": "bytes32"
        }
      ],
      "name": "withdrawDonation",
      "outputs": [],
      "stateMutability": "nonpayable",
      "type": "function"
    },
    {
      "inputs": [
        {
          "internalType": "bytes32",
          "name": "_projectId",
          "type": "bytes32"
        }
      ],
      "name": "withdrawDonationByOwner",
      "outputs": [],
      "stateMutability": "nonpayable",
      "type": "function"
    },
    {
      "stateMutability": "payable",
      "type": "receive"
    }
  ],
  "bytecode": "0x60806040523480156200001157600080fd5b50604051620023083803806200230883398101604081905262000034916200019a565b600180546001600160a01b038085166001600160a01b031992831617909255600280549284169290911691909117905562000071600033620000d1565b6200009d7f52c48f18d9ccdcd19e6a9ce6f2f329e0b2dad1770f0846656c5f869c12c0c4b533620000d1565b620000c97fa88d484f5aeb539ab60f9bd084e23511bc356a4f715a255e909643bb69ddcb4133620000d1565b5050620001d9565b620000dd8282620000e1565b5050565b6000828152602081815260408083206001600160a01b038516845290915290205460ff16620000dd576000828152602081815260408083206001600160a01b03851684529091529020805460ff191660011790556200013d3390565b6001600160a01b0316816001600160a01b0316837f2f8788117e7eff1d82e926ec794901d17c78024a50270940304540a733656f0d60405160405180910390a45050565b6001600160a01b03811681146200019757600080fd5b50565b60008060408385031215620001ae57600080fd5b8251620001bb8162000181565b6020840151909250620001ce8162000181565b809150509250929050565b61211f80620001e96000396000f3fe6080604052600436106101b05760003560e01c8063718da7ee116100ec578063b7c2e2ba1161008a578063d1d3ffd211610064578063d1d3ffd21461060d578063d547741f1461062d578063f437ef9a1461064d578063f7260d3e1461066d57600080fd5b8063b7c2e2ba1461058d578063b96ea12d146105ad578063c9dc4bba146105e057600080fd5b806391d14854116100c657806391d14854146104e9578063a217fddf1461052d578063adf64ee914610542578063b3ba66961461055557600080fd5b8063718da7ee1461045b5780637876639f1461047b57806380220d28146104b157600080fd5b80632d548fc01161015957806336568abe1161013357806336568abe1461039657806341436baa146103b6578063614aacc2146103e357806365a0aee21461042357600080fd5b80632d548fc0146103365780632f2ff15d1461035657806335360b911461037657600080fd5b80632b73f75a1161018a5780632b73f75a1461029b5780632c61c66c146102e05780632d2ccf3d1461030257600080fd5b806301ffc9a7146101f4578063248a9ca31461022957806329c76a731461026757600080fd5b366101ef57604080513381523460208201527f88a5966d370b9919b20f3e2c13ff65706f196a4e32cc2c12bf57088f88525874910160405180910390a1005b600080fd5b34801561020057600080fd5b5061021461020f3660046119e0565b61068d565b60405190151581526020015b60405180910390f35b34801561023557600080fd5b50610259610244366004611a0a565b60009081526020819052604090206001015490565b604051908152602001610220565b34801561027357600080fd5b506102597fa88d484f5aeb539ab60f9bd084e23511bc356a4f715a255e909643bb69ddcb4181565b3480156102a757600080fd5b506102d36102b6366004611a0a565b600090815260036020526040902060040154610100900460ff1690565b6040516102209190611a4d565b3480156102ec57600080fd5b506103006102fb366004611a0a565b6106c4565b005b34801561030e57600080fd5b506102597f52c48f18d9ccdcd19e6a9ce6f2f329e0b2dad1770f0846656c5f869c12c0c4b581565b34801561034257600080fd5b50610300610351366004611a5b565b610893565b34801561036257600080fd5b50610300610371366004611aa4565b610981565b34801561038257600080fd5b50610300610391366004611a0a565b6109ab565b3480156103a257600080fd5b506103006103b1366004611aa4565b610b79565b3480156103c257600080fd5b506102596103d1366004611a0a565b60056020526000908152604090205481565b3480156103ef57600080fd5b506104166103fe366004611a0a565b60009081526003602052604090206004015460ff1690565b6040516102209190611ad9565b34801561042f57600080fd5b50600154610443906001600160a01b031681565b6040516001600160a01b039091168152602001610220565b34801561046757600080fd5b50610300610476366004611ae7565b610c05565b34801561048757600080fd5b50610443610496366004611a0a565b6006602052600090815260409020546001600160a01b031681565b3480156104bd57600080fd5b506102596104cc366004611a0a565b336000908152600460209081526040808320938352929052205490565b3480156104f557600080fd5b50610214610504366004611aa4565b6000918252602082815260408084206001600160a01b0393909316845291905290205460ff1690565b34801561053957600080fd5b50610259600081565b610300610550366004611bb9565b610cb5565b34801561056157600080fd5b50610259610570366004611c5a565b600460209081526000928352604080842090915290825290205481565b34801561059957600080fd5b506103006105a8366004611ca6565b610f47565b3480156105b957600080fd5b506105cd6105c8366004611a0a565b61113f565b6040516102209796959493929190611d88565b3480156105ec57600080fd5b506102596105fb366004611a0a565b60009081526005602052604090205490565b34801561061957600080fd5b50610300610628366004611dff565b611323565b34801561063957600080fd5b50610300610648366004611aa4565b6114ad565b34801561065957600080fd5b50610300610668366004611bb9565b6114d2565b34801561067957600080fd5b50600254610443906001600160a01b031681565b60006001600160e01b03198216637965db0b60e01b14806106be57506301ffc9a760e01b6001600160e01b03198316145b92915050565b600081815260036020526040902060049081015460ff16818111156106eb576106eb611a23565b1461073d5760405162461bcd60e51b815260206004820152601760248201527f50726f6a65637420646f6573206e6f7420636c6f73656400000000000000000060448201526064015b60405180910390fd5b6001600082815260036020526040902060040154610100900460ff16600281111561076a5761076a611a23565b146107b75760405162461bcd60e51b815260206004820181905260248201527f50726f6a65637420766f74696e6720737461747573206973206e6f7420666f726044820152606401610734565b600081815260056020526040902054806108395760405162461bcd60e51b815260206004820152602b60248201527f4e6f20646f6e6174696f6e20666f756e6420666f72207468652073706563696660448201527f6965642070726f6a6563740000000000000000000000000000000000000000006064820152608401610734565b600082815260056020908152604080832083905560069091528082205490516001600160a01b0390911691829184156108fc0291859190818181858888f1935050505015801561088d573d6000803e3d6000fd5b50505050565b7fa88d484f5aeb539ab60f9bd084e23511bc356a4f715a255e909643bb69ddcb416108bd81611681565b600083815260036020526040902060049081015460ff16818111156108e4576108e4611a23565b036109315760405162461bcd60e51b815260206004820152601160248201527f50726f6a65637420697320636c6f7365640000000000000000000000000000006044820152606401610734565b600083815260036020526040902060049081018054849260ff1990911690600190849081111561096357610963611a23565b02179055505050600090815260036020526040902042600590910155565b60008281526020819052604090206001015461099c81611681565b6109a6838361168e565b505050565b600081815260036020526040902060049081015460ff16818111156109d2576109d2611a23565b14610a1f5760405162461bcd60e51b815260206004820152601760248201527f50726f6a65637420646f6573206e6f7420636c6f7365640000000000000000006044820152606401610734565b6002600082815260036020526040902060040154610100900460ff166002811115610a4c57610a4c611a23565b14610aa55760405162461bcd60e51b8152602060048201526024808201527f50726f6a65637420766f74696e6720737461747573206973206e6f74206167616044820152631a5b9cdd60e21b6064820152608401610734565b33600090815260046020908152604080832084845290915290205480610b335760405162461bcd60e51b815260206004820152602a60248201527f4e6f206465706f73697420666f756e6420666f7220746865207370656369666960448201527f65642070726f6a656374000000000000000000000000000000000000000000006064820152608401610734565b3360008181526004602090815260408083208684529091528082208290555183156108fc0291849190818181858888f193505050501580156109a6573d6000803e3d6000fd5b6001600160a01b0381163314610bf75760405162461bcd60e51b815260206004820152602f60248201527f416363657373436f6e74726f6c3a2063616e206f6e6c792072656e6f756e636560448201527f20726f6c657320666f722073656c6600000000000000000000000000000000006064820152608401610734565b610c01828261172c565b5050565b7fa88d484f5aeb539ab60f9bd084e23511bc356a4f715a255e909643bb69ddcb41610c2f81611681565b6001600160a01b038216610c855760405162461bcd60e51b815260206004820152601860248201527f496e76616c6964207265636569766572206164647265737300000000000000006044820152606401610734565b506002805473ffffffffffffffffffffffffffffffffffffffff19166001600160a01b0392909216919091179055565b6002602080830151600090815260039091526040902060049081015460ff1690811115610ce457610ce4611a23565b14610d315760405162461bcd60e51b815260206004820152601760248201527f50726f6a656374206973206e6f7420456c696769626c650000000000000000006044820152606401610734565b60008160400151806020019051810190610d4b9190611e28565b9050803414610dc25760405162461bcd60e51b815260206004820152603060248201527f446f6e6174696f6e20616d6f756e7420646f6573206e6f74206d61746368206160448201527f74746573746174696f6e2076616c7565000000000000000000000000000000006064820152608401610734565b604080516001808252818301909252600091816020015b60408051606080820183526000808352602083015291810191909152815260200190600190039081610dd9579050509050604051806060016040528084600001516001600160a01b0316815260200184602001518152602001846040015181525081600081518110610e4d57610e4d611e41565b60209081029190910101526001546040516305eb5ea160e41b81526001600160a01b0390911690635eb5ea1090610e88908490600401611e57565b600060405180830381600087803b158015610ea257600080fd5b505af1158015610eb6573d6000803e3d6000fd5b5050505060003411156109a6576002546040516001600160a01b03909116903480156108fc02916000818181858888f19350505050158015610efc573d6000803e3d6000fd5b503360009081526004602090815260408083208683018051855290835281842034908190559051845260059092528220805491929091610f3d908490611ef5565b9091555050505050565b7fa88d484f5aeb539ab60f9bd084e23511bc356a4f715a255e909643bb69ddcb41610f7181611681565b600085815260036020526040812060049081015460ff1690811115610f9857610f98611a23565b14610fe55760405162461bcd60e51b815260206004820152601660248201527f50726f6a65637420616c726561647920657869737473000000000000000000006044820152606401610734565b6040805160e081018252338152602081018690529081018490526060810183905260808101600181526020016000815242602091820152600087815260038252604090208251815473ffffffffffffffffffffffffffffffffffffffff19166001600160a01b039091161781559082015160018201906110659082611f90565b506040820151600282019061107a9082611f90565b506060820151600382019061108f9082611f90565b5060808201518160040160006101000a81548160ff021916908360048111156110ba576110ba611a23565b021790555060a082015160048201805461ff0019166101008360028111156110e4576110e4611a23565b021790555060c09190910151600590910155505050600091825250600660209081526040808320805473ffffffffffffffffffffffffffffffffffffffff19163317905560039091529020600401805460ff19166001179055565b600360205260009081526040902080546001820180546001600160a01b03909216929161116b90611f08565b80601f016020809104026020016040519081016040528092919081815260200182805461119790611f08565b80156111e45780601f106111b9576101008083540402835291602001916111e4565b820191906000526020600020905b8154815290600101906020018083116111c757829003601f168201915b5050505050908060020180546111f990611f08565b80601f016020809104026020016040519081016040528092919081815260200182805461122590611f08565b80156112725780601f1061124757610100808354040283529160200191611272565b820191906000526020600020905b81548152906001019060200180831161125557829003601f168201915b50505050509080600301805461128790611f08565b80601f01602080910402602001604051908101604052809291908181526020018280546112b390611f08565b80156113005780601f106112d557610100808354040283529160200191611300565b820191906000526020600020905b8154815290600101906020018083116112e357829003601f168201915b505050506004830154600590930154919260ff8082169361010090920416915087565b7fa88d484f5aeb539ab60f9bd084e23511bc356a4f715a255e909643bb69ddcb4161134d81611681565b6003600084815260036020526040902060049081015460ff169081111561137657611376611a23565b146113c35760405162461bcd60e51b815260206004820152601f60248201527f50726f6a656374206973206e6f7420696e20766f74696e6720737461747573006044820152606401610734565b8160028111156113d5576113d5611a23565b600084815260036020526040902060040154610100900460ff16600281111561140057611400611a23565b036114735760405162461bcd60e51b815260206004820152602e60248201527f566f74696e672073746174757320697320616c72656164792073657420746f2060448201527f7468652073616d652076616c75650000000000000000000000000000000000006064820152608401610734565b6000838152600360205260409020600401805483919061ff0019166101008360028111156114a3576114a3611a23565b0217905550505050565b6000828152602081905260409020600101546114c881611681565b6109a6838361172c565b7f52c48f18d9ccdcd19e6a9ce6f2f329e0b2dad1770f0846656c5f869c12c0c4b56114fc81611681565b81516001600160a01b031633146115615760405162461bcd60e51b815260206004820152602360248201527f6174746573746174696f6e5f61626f7574206973206e6f74206d73672e73656e6044820152623232b960e91b6064820152608401610734565b604080516001808252818301909252600091816020015b60408051606080820183526000808352602083015291810191909152815260200190600190039081611578579050509050604051806060016040528084600001516001600160a01b03168152602001846020015181526020018460400151815250816000815181106115ec576115ec611e41565b60209081029190910101526001546040516305eb5ea160e41b81526001600160a01b0390911690635eb5ea1090611627908490600401611e57565b600060405180830381600087803b15801561164157600080fd5b505af1158015611655573d6000803e3d6000fd5b505050602080850151600090815260039091526040902060040180546002925060ff19166001836114a3565b61168b81336117ab565b50565b6000828152602081815260408083206001600160a01b038516845290915290205460ff16610c01576000828152602081815260408083206001600160a01b03851684529091529020805460ff191660011790556116e83390565b6001600160a01b0316816001600160a01b0316837f2f8788117e7eff1d82e926ec794901d17c78024a50270940304540a733656f0d60405160405180910390a45050565b6000828152602081815260408083206001600160a01b038516845290915290205460ff1615610c01576000828152602081815260408083206001600160a01b0385168085529252808320805460ff1916905551339285917ff6391f5c32d9c69d2a47ea670b442974b53935d1edc7fd64eb21e047a839171b9190a45050565b6000828152602081815260408083206001600160a01b038516845290915290205460ff16610c01576117dc8161181e565b6117e7836020611830565b6040516020016117f8929190612050565b60408051601f198184030181529082905262461bcd60e51b8252610734916004016120d1565b60606106be6001600160a01b03831660145b6060600061183f8360026120e4565b61184a906002611ef5565b67ffffffffffffffff81111561186257611862611b04565b6040519080825280601f01601f19166020018201604052801561188c576020820181803683370190505b509050600360fc1b816000815181106118a7576118a7611e41565b60200101906001600160f81b031916908160001a905350600f60fb1b816001815181106118d6576118d6611e41565b60200101906001600160f81b031916908160001a90535060006118fa8460026120e4565b611905906001611ef5565b90505b600181111561198a577f303132333435363738396162636465660000000000000000000000000000000085600f166010811061194657611946611e41565b1a60f81b82828151811061195c5761195c611e41565b60200101906001600160f81b031916908160001a90535060049490941c93611983816120fb565b9050611908565b5083156119d95760405162461bcd60e51b815260206004820181905260248201527f537472696e67733a20686578206c656e67746820696e73756666696369656e746044820152606401610734565b9392505050565b6000602082840312156119f257600080fd5b81356001600160e01b0319811681146119d957600080fd5b600060208284031215611a1c57600080fd5b5035919050565b634e487b7160e01b600052602160045260246000fd5b60038110611a4957611a49611a23565b9052565b602081016106be8284611a39565b60008060408385031215611a6e57600080fd5b82359150602083013560058110611a8457600080fd5b809150509250929050565b6001600160a01b038116811461168b57600080fd5b60008060408385031215611ab757600080fd5b823591506020830135611a8481611a8f565b60058110611a4957611a49611a23565b602081016106be8284611ac9565b600060208284031215611af957600080fd5b81356119d981611a8f565b634e487b7160e01b600052604160045260246000fd5b6040516060810167ffffffffffffffff81118282101715611b3d57611b3d611b04565b60405290565b600067ffffffffffffffff80841115611b5e57611b5e611b04565b604051601f8501601f19908116603f01168101908282118183101715611b8657611b86611b04565b81604052809350858152868686011115611b9f57600080fd5b858560208301376000602087830101525050509392505050565b600060208284031215611bcb57600080fd5b813567ffffffffffffffff80821115611be357600080fd5b9083019060608286031215611bf757600080fd5b611bff611b1a565b8235611c0a81611a8f565b815260208381013590820152604083013582811115611c2857600080fd5b80840193505085601f840112611c3d57600080fd5b611c4c86843560208601611b43565b604082015295945050505050565b60008060408385031215611c6d57600080fd5b8235611c7881611a8f565b946020939093013593505050565b600082601f830112611c9757600080fd5b6119d983833560208501611b43565b60008060008060808587031215611cbc57600080fd5b84359350602085013567ffffffffffffffff80821115611cdb57600080fd5b611ce788838901611c86565b94506040870135915080821115611cfd57600080fd5b611d0988838901611c86565b93506060870135915080821115611d1f57600080fd5b50611d2c87828801611c86565b91505092959194509250565b60005b83811015611d53578181015183820152602001611d3b565b50506000910152565b60008151808452611d74816020860160208601611d38565b601f01601f19169290920160200192915050565b6001600160a01b038816815260e060208201526000611daa60e0830189611d5c565b8281036040840152611dbc8189611d5c565b90508281036060840152611dd08188611d5c565b915050611de06080830186611ac9565b611ded60a0830185611a39565b8260c083015298975050505050505050565b60008060408385031215611e1257600080fd5b82359150602083013560038110611a8457600080fd5b600060208284031215611e3a57600080fd5b5051919050565b634e487b7160e01b600052603260045260246000fd5b60006020808301818452808551808352604092508286019150828160051b87010184880160005b83811015611ed157888303603f19018552815180516001600160a01b0316845287810151888501528601516060878501819052611ebd81860183611d5c565b968901969450505090860190600101611e7e565b509098975050505050505050565b634e487b7160e01b600052601160045260246000fd5b808201808211156106be576106be611edf565b600181811c90821680611f1c57607f821691505b602082108103611f3c57634e487b7160e01b600052602260045260246000fd5b50919050565b601f8211156109a657600081815260208120601f850160051c81016020861015611f695750805b601f850160051c820191505b81811015611f8857828155600101611f75565b505050505050565b815167ffffffffffffffff811115611faa57611faa611b04565b611fbe81611fb88454611f08565b84611f42565b602080601f831160018114611ff35760008415611fdb5750858301515b600019600386901b1c1916600185901b178555611f88565b600085815260208120601f198616915b8281101561202257888601518255948401946001909101908401612003565b50858210156120405787850151600019600388901b60f8161c191681555b5050505050600190811b01905550565b7f416363657373436f6e74726f6c3a206163636f756e7420000000000000000000815260008351612088816017850160208801611d38565b7f206973206d697373696e6720726f6c652000000000000000000000000000000060179184019182015283516120c5816028840160208801611d38565b01602801949350505050565b6020815260006119d96020830184611d5c565b80820281158282048414176106be576106be611edf565b60008161210a5761210a611edf565b50600019019056fea164736f6c6343000812000a",
  "linkReferences": {},
  "deployedLinkReferences": {}
}